S01800007543426F617264426569737069656C652E73726563DA
S113000071C000008FC000008DC000008BC00000D4
S113001089C0000087C0000085C0000083C00000C4
S113002081C000007FC000007DC000007BC00000D4
S113003079C0000077C0000075C0000073C00000E4
S113004071C000006FC000006DC000006BC00000F4
S113005069C0000067C0000065C0000059C6000008
S113006061C000005FC000005DC000005BC0000014
S113007059C0000057C0000055C0000053C0000024
S113008051C000004FC000004DC000004BC0000034
S113009049C0000047C0000045C0000043C0000044
S11300A041C000003FC000003DC000003BC0000054
S11300B039C0000037C0000035C0000033C0000064
S11300C031C000002FC000002DC000002BC0000074
S11300D029C0000027C0000025C0000023C0000084
S11300E021C0000011241FBECFEFD1E2DEBFCDBF7F
S11300F000E00CBF12E0A0E0B2E0ECE5F4E100E0C7
S11301000BBF02C007900D92A839B107D9F723E0BD
S1130110A8E9B2E001C01D92A036B207E1F703D00E
S11301200C942C0A6DCFCF93DF9300D01F92CDB7E0
S1130130DEB781E03CD3312C912CE12CF12C00E092
S113014010E01C82612C712C1A821982A12CB12C12
S11301501B82812C0F2EFAE0CF2EF2E0DF2EF02D41
S11301600F2EF8EC2F2EF02DCED0582E2B8120956B
S113017028232B83C6D0482E8B8180FF1EC040E0ED
S113018050E064E670E080E090E0EBD09B8191FF6A
S11301900FC089819A8101969A838983B4D0E981B9
S11301A0FA81EE0FFF1FE35FFD4FA080B180BB24F7
S11301B093E6941508F074C088C01F923F92DF92B2
S11301C0CF9200D41F924F92DF92CF92FBD30FB6FF
S11301D0F894DEBF0FBECDBF3320D9F1292D3E2DBB
S11301E04F2D502F612F7C81862D972D2539310578
S11301F041055105610571058105910541F038F00E
S113020040E050E060E070E080E090E0AAD0292D6A
S11302103E2D4F2D502F612F7C81862D972D273C0D
S11302203105410551056105710581059105C9F047
S1130230C0F040E050E060E070E084E690E091D0EF
S1130240982CE82CF82C082D182D8C82682C782CEE
S113025008C0922CE82CF82C082D182D8C82682CC0
S1130260782CC5014BD02FEF80E792E021508040DD
S11302709040E1F700C00000292D3E2D4F2D502F56
S1130280612F7C81862D972DA2E3ECD5922EE32E4F
S1130290F42E052F162F7C83682E792E5B8264CF73
S11302A01F92E1E0EF93DF92CF928CD31F924F9293
S11302B0DF92CF9287D30FB6F894DEBF0FBECDBFC7
S11302C033243394A12CB12C89CF1F921F92DF9237
S11302D0CF9278D31F924F92DF92CF9273D30FB6FF
S11302E0F894DEBF0FBECDBF382C922CE82CF82C2E
S11302F0082D182D8C82682C782CB3CF82B995B92F
S1130300089586B1089580910901089583E084BD1C
S11303108BE085BD81E080936E0089EF87BD0895F1
S113032011BA10BA109208011092070180E4809368
S11303307C008FE080937E008FEF80937D00EAE75E
S1130340F0E087EA808310927B0080818064808360
S1130350808184FFFDCFEAE7F0E080818F7E808397
S113036008952FEF33E0F901E81BF90BC901861B4F
S1130370970B241B350BF093A900E093A8009093EE
S1130380AB008093AA003093AD002093AC00089595
S11303908EEF8093A0008BE18093A10083E0809393
S11303A0A7008FEF8093A60040E050E060E070E08B
S11303B080E090E0D6CF0895882311F0A09A0895A4
S11303C0A0980895882311F0A19A0895A1980895FA
S11303D0811104C084B58F7D84BD089594B5906265
S11303E094BD88BD0895EF92FF920F931F93CF930E
S11303F0DF937C01EB0181E0DFDF05E010E080E0CA
S1130400E1DF81E0DFDF01501109C9F780E0D4DFCB
S113041080E0D8DF81E0D6DF83E4E816F10419F444
S113042080E0CADF02C081E0C7DF80E0CBDF81E08B
S1130430C9DF80E0C1DF80E0C5DF81E0C3DF04E025
S113044010E080E0BFDFC0FF03C081E0B5DF02C081
S113045080E0B2DFD695C79580E0B4DF81E0B2DFFB
S11304600150110971F780E0A7DF04E010E080E09B
S1130470A9DF81E0A7DF01501109C9F704E010E00A
S113048080E0A0DFC0FF03C081E096DF02C080E00F
S113049093DFD695C79580E095DF81E093DF015027
S11304A0110971F780E088DFC4E0D0E080E08ADFE2
S11304B081E088DF2197D1F781E07EDF87EC90E04F
S11304C00197F1F700C00000DF91CF911F910F91C8
S11304D0FF90EF9008951F93CF93DF93CDB7DEB7CE
S11304E065970FB6F894DEBF0FBECDBF9E01205EA8
S11304F03F4F4E8D5F8D65E170E0CE010196C7D40C
S11305006D8D8C8D90E2899F600D1124606870E080
S113051083E490E068DF6981662379F010E01F5F6F
S113052070E084E490E05FDFE1E0F0E0EC0FFD1FB9
S1130530E10FF11D60816111F2CF65960FB6F89459
S1130540DEBF0FBECDBFDF91CF911F9108952F92D3
S11305503F924F925F926F927F928F929F92AF924F
S1130560BF92CF92DF92EF92FF920F931F93CF939C
S1130570DF93CDB7DEB7E3970FB6F894DEBF0FBEB7
S1130580CDBF8AAB6BABEDA6FEA6702E612E522EAC
S1130590432ECFA6A8AA8C2D8A0D89AB853170F085
S11305A08DE292E09F938F939BA99F93EAA9EF9387
S11305B092DF0F900F900F900F90A8C04E01F5E1BD
S11305C08F0E911CCE0101969CA78BA7242E352E4D
S11305D00F2EFAE0AF2EF02DB12CC12CD12CE12C32
S11305E0F12C00E010E02DA53EA5472D562D652DDC
S11305F0742D822D932DD8D3205DF40122934F01C5
S11306002DA53EA5472D562D652D742D822D932D98
S1130610CDD32DA73EA7742E652E562E472E282EF9
S1130620392E8BA59CA58815990591F684E199A985
S1130630891BEFA5EE2389F0FE0175962FA5280FDF
S1130640A1E0B0E0AC0FBD1FA80FB11D9C91919328
S11306508F5F8213F5CF3FA502C0282F3FA5F8A9CD
S1130660FF23F1F0FE01E30FF11D8EE2858B91E093
S1130670930F38A9390F892F291BE5E1F0E0EC0F1E
S1130680FD1FE80FF11D922F980FA1E0B0E0AC0F11
S1130690BD1FA90FB11D9C9190838F5F3813EDCFBF
S11306A0FE01E30FF11D158A8D89803311F58FA5A5
S11306B0482F50E04150510914161506D4F480E037
S11306C090E020E060E22F5FE5E1F0E0EC0FFD1F39
S11306D0E80FF91F6083822F90E0E5E1F0E0EC0F72
S11306E0FD1FE80FF91F3081303319F48417950783
S11306F054F3CE0145969F938F939BA99F93EAA9A8
S1130700EF93E9DE0F900F900F900F90E3960FB6E2
S1130710F894DEBF0FBECDBFDF91CF911F910F9133
S1130720FF90EF90DF90CF90BF90AF909F908F900D
S11307307F906F905F904F903F902F90089561E06D
S113074070E083E490E04FDE8FE39FE10197F1F7DF
S113075000C0000085E592E09F938F931F921F9243
S1130760BADE0F900F900F900F90089581E02ADE6B
S113077080E022DE64E370E083E490E034DE69E04C
S113078070E083E490E02FDE60E370E083E490E0C7
S11307902ADE6CE070E083E490E025DED0DF67E0E1
S11307A070E083E490E01FDE80E012CE08954F9263
S11307B05F926F927F928F929F92AF92BF92CF92ED
S11307C0DF92EF92FF920F931F93CF93DF93C82F83
S11307D085B785BF12B88FEF81B915B884B988B9C8
S11307E017B88BB91AB88EB91DB8729811BA10BA65
S11307F094E094BB93B3936093BB9D9A97EC9093CE
S1130800020198E390930101109205018093040181
S113081010920801109207018CE380930B0110924F
S11308200A01789473DDA2DF7BDDB2DDCC2309F409
S1130830B8C08FEFCDDD40E050E06FEF73E080E0B3
S113084090E08FDD82E492E09F938F931F921F923A
S113085042DE87E592E09F938F931F9281E08F930E
S11308603ADE8DE292E09F938F931F9282E08F9302
S113087032DE8CE692E09F938F931F9283E08F93F6
S11308802ADE8DB79EB740960FB6F8949EBF0FBE72
S11308908DBF88248394C0E0712C99249394D0E074
S11308A0CC24C394D12CE12C6894FF24F7F866245B
S11308B06394512C09E011E00F2EF1E8AF2EF2E021
S11308C0BF2EF02D0F2EF3E04F2EF02D992049F07E
S11308D0C7010D2E02C0969587950A94E2F70EDDA6
S11308E008C0C6010D2E02C0880F991F0A94E2F7B2
S11308F005DDDF5FD13128F0862D9110852D982EEE
S1130900D0E0882011F0CE5F01C0C2508C2F60DD92
S1130910CE3F21F0C83719F4862C01C0852C711004
S11309203BC0F8018081837C91F040E050E066E2B6
S113093072E08FEF93E015DDBF92AF921F924F925A
S1130940CADD0F900F900F900F90762C25C08FEF7B
S11309509CE70197F1F700C00000B8CFF0DE80E01B
S113096037DD80E090E0CADC40E050E060E070E019
S113097080E090E0F6DC1092E7021092E802109218
S1130980E9021092EA021092EB021092EC02109229
S1130990ED021092EE0205C0F8018081837CB9F665
S11309A0DDCFDF91CF911F910F91FF90EF90DF90FA
S11309B0CF90BF90AF909F908F907F906F905F90FB
S11309C04F9008956F927F928F929F92AF92BF92B1
S11309D0CF92DF92EF92FF920F931F93CF93DF9307
S11309E0CDB7DEB760970FB6F894DEBF0FBECDBFAC
S11309F0809100028823B1F1A2DE109200021092CD
S1130A00E5021092E4020F2EFCED8F2EF2E09F2EF1
S1130A10F02D0CE912E0A0E0B0E040E2BD01F401E9
S1130A20119211924F01F801419381E090E013C0BB
S1130A3062957295707F7627607F762764567D4F26
S1130A40FB01E20FF31F10821196005F1F4FA430C9
S1130A50B10521F707C09C014193019680319105AE
S1130A60D1F7E6CF8091E4029091E502019690934C
S1130A70E5028093E4029E012C5D3F4F4AA15BA1F5
S1130A8060E170E0CE01019602D28E010F5F1F4F2C
S1130A904E01F1E18F0E911CF80190E030E221E06B
S1130AA0DF018081882319F0992319F001C0922F66
S1130AB03C933196E815F90599F7188A6CE972E0C8
S1130AC0CE010196DBD1882309F47EC00F2EF2EE0D
S1130AD06F2EF2E07F2EF02D6CEC72E04CE952E0C8
S1130AE0F301929182913F0193838283DB015097BA
S1130AF09B01205F3F4FFB018D918193E217F30728
S1130B00D9F7605171096417750751F7F80181919C
S1130B108F01FA018193AF0108151905B9F7809186
S1130B20E4029091E5029093DD028093DC028091CF
S1130B30010294E0D92ED81AF3E0FD1508F45BC045
S1130B4083E0B82EBD180F2EF5E06F2EF02D0F2E7A
S1130B50F6E98F2EF2E09F2EF02D6894772472F838
S1130B600B2D10E0C80182959295907F9827807F85
S1130B70982784569D4F9F938F936F92DF92ABDC9F
S1130B809F928F927F92DF92A6DC000F111FF801D3
S1130B90E452FD4F00811181A12CC72CE02EF12ECF
S1130BA000E010E020E030E040E050E060E08D2D17
S1130BB0CEDCD394BA940FB6F894DEBF0FBECDBF8B
S1130BC094E0D912CDCF17C00091E4021091E50250
S1130BD01093DD020093DC02A12C6894CC24C2F8AB
S1130BE0E02EF12E00E010E020E030E040E050E0A4
S1130BF060E083E0ACDC60960FB6F894DEBF0FBE15
S1130C00CDBFDF91CF911F910F91FF90EF90DF90B7
S1130C10CF90BF90AF909F908F907F906F900895EA
S1130C20CF93DF93CDB7DEB728970FB6F894DEBF26
S1130C300FBECDBF88E0E2E0F2E0DE011196019044
S1130C400D928A95E1F7E5E0F1E080818F7B808366
S1130C50E0919A02F0919B0281E090E08C0F9D1F3D
S1130C60E80FF91F808190E0909399028093980295
S1130C70A0E6B3E020EF32E0E5E0F1E05E914E91D2
S1130C80809198029091990284239523892B21F0D5
S1130C9080818062808303C080818F7D8083808196
S1130CA08061808380818F7E8083A217B30731F7B0
S1130CB0E5E0F1E08081877F80838081887F808385
S1130CC0908180919A02892B8083808180648083C3
S1130CD080818860808380919A0290919B02873002
S1130CE0910530F4019690939B0280939A0207C079
S1130CF010929B0210929A0281E08093E602289659
S1130D000FB6F894DEBF0FBECDBFDF91CF9108952B
S1130D101F920F920FB60F9211240BB60F922F93BE
S1130D203F934F935F936F937F938F939F93AF936F
S1130D30BF93EF93FF932091E7023091E802409133
S1130D40E9025091EA026091EB027091EC02809109
S1130D50ED029091EE02A1E085D02093E70230935A
S1130D60E8024093E9025093EA026093EB02709325
S1130D70EC028093ED029093EE028091EF028111D8
S1130D804FDFFF91EF91BF91AF919F918F917F9131
S1130D906F915F914F913F912F910F900BBE0F90E8
S1130DA00FBE0F901F901895689401C0E8948F921D
S1130DB09F92CF93DF9305D0DF91CF919F908F9037
S1130DC0089588249924F401E401B0E49F93AA27A8
S1130DD09A158B049C04ED05FE05CF05D007A107E9
S1130DE098F4AD2FDC2FCF2FFE2FE92D982C892ED0
S1130DF0982F872F762F652F542F432F322F22279A
S1130E00B85031F7BF9127C01B2EBF91BB27220FCB
S1130E10331F441F551F661F771F881F991F881C87
S1130E20991CEE1FFF1FCC1FDD1FAA1FBB1F8A14B6
S1130E309B04EC05FD05CE05DF05A007B10748F0CE
S1130E408A189B08EC09FD09CE09DF09A00BB10B38
S1130E5021601A94E1F62EF49401AF01BE01CD0194
S1130E60000C08950024A7FD00942A0F301D401D96
S1130E70501D601D701D801D901D0895FB01DC0137
S1130E808D91019080190110D9F3990B08950F9356
S1130E901F93CF93DF93CDB7DEB72E970FB6F89499
S1130EA0DEBF0FBECDBF8C01FA0186E08C831A83AE
S1130EB0098377FF02C060E070E8CB0101979E834D
S1130EC08D83A901BF01CE01019619D04D815E81A8
S1130ED057FD0AC02F813885421753070CF49A0135
S1130EE0F801E20FF31F10822E960FB6F894DEBFBE
S1130EF00FBECDBFDF91CF911F910F9108952F9217
S1130F003F924F925F926F927F928F929F92AF9295
S1130F10BF92CF92DF92EF92FF920F931F93CF93E2
S1130F20DF93CDB7DEB72B970FB6F894DEBF0FBEB5
S1130F30CDBF6C017B018A01FC011782168283817B
S1130F4081FFBFC1CE0101963C01F6019381F701F7
S1130F5093FD859193FF81917F01882309F4ADC1AD
S1130F60853239F493FD859193FF81917F01853218
S1130F7021F4B60190E0D6D1E8CF912C212C312C6C
S1130F80FFE1F315D8F08B3279F038F4803279F040
S1130F908332A1F4232D20611DC08D3261F0803392
S1130FA069F4232D216016C0832D8260382EE32D31
S1130FB0E4603E2E2AC0F32DF8601DC037FC2DC01E
S1130FC020ED280F2A3040F08E32B9F436FC75C17A
S1130FD0232D2064322E19C036FE06C08AE0989E66
S1130FE0200D1124922E11C0EAE02E9E200D112412
S1130FF0222EF32DF0623F2E08C08C3621F4832D6F
S11310008068382E02C0883641F4F70193FD85913B
S113101093FF81917F018111B3CF982F9F7D9554C8
S1131020933028F40C5F1F4F9FE399830DC08336E0
S113103031F0833771F0833509F055C020C0F801D1
S1131040808189830E5F1F4F88248394912C5301E0
S113105012C02801F2E04F0E511CF801A080B180AB
S113106036FE03C0692D70E002C06FEF7FEFC5014B
S11310704ED14C018201F32DFF773F2E15C028017C
S113108022E0420E511CF801A080B18036FE03C05C
S1131090692D70E002C06FEF7FEFC5012DD14C01C7
S11310A0F32DF0683F2E820133FC19C0822D90E0AD
S11310B088169906A0F4B60180E290E033D12A9410
S11310C0F5CFF50137FC859137FE81915F01B601BB
S11310D090E028D121102A9421E0821A91088114E9
S11310E0910479F7E1C0843611F0893639F5F801B5
S11310F037FE07C060817181828193810C5F1F4F2D
S113110008C060817181072E000C880B990B0E5F5B
S11311101F4FF32DFF763F2E97FF09C090958095C2
S1131120709561957F4F8F4F9F4FF0683F2E2AE057
S113113030E0A30133D1882E861844C0853731F4BA
S1131140232D2F7EB22E2AE030E025C0932D997FE7
S1131150B92E8F36C1F018F4883579F0AEC08037D7
S113116019F0883721F0A9C0E92FE061BE2EB4FE42
S11311700DC0FB2DF460BF2E09C034FE0AC0292F18
S11311802660B22E06C028E030E005C020E130E041
S113119002C020E132E0F801B7FE07C0608171812E
S11311A0828193810C5F1F4F06C06081718180E052
S11311B090E00E5F1F4FA301F1D0882E8618FB2DFF
S11311C0FF773F2E36FE0DC0232D2E7FA22E8914CD
S11311D058F434FE0BC032FC09C0832D8E7EA82E39
S11311E005C0B82CA32C03C0B82C01C0B92CA4FE94
S11311F00FC0FE01E80DF11D8081803321F49A2D8A
S1131200997EA92E09C0A2FE06C0B394B39404C06B
S11312108A2D867809F0B394A3FC10C0A0FE06C002
S1131220B21480F4280C922C9B180DC0B21458F4FC
S1131230B60180E290E076D0B394F8CFB21418F4FB
S11312402B1802C0982C212CA4FE0FC0B60180E3F9
S113125090E068D0A2FE16C0A1FC03C088E790E02D
S113126002C088E590E0B6010CC08A2D867851F062
S1131270A1FE02C08BE201C080E2A7FC8DE2B601B0
S113128090E050D0891430F4B60180E390E04AD065
S11312909A94F8CF8A94F301E80DF11D8081B60188
S11312A090E040D08110F6CF222009F44ECEB60152
S11312B080E290E037D02A94F7CFF60186819781B7
S11312C002C08FEF9FEF2B960FB6F894DEBF0FBED0
S11312D0CDBFDF91CF911F910F91FF90EF90DF90E1
S11312E0CF90BF90AF909F908F907F906F905F90C2
S11312F04F903F902F900895FC01059061507040ED
S11313000110D8F7809590958E0F9F1F0895FC01CA
S11313106150704001900110D8F7809590958E0F20
S11313209F1F08950F931F93CF93DF93FB01238196
S113133021FD03C08FEF9FEF2CC022FF16C0468112
S11313405781248135814217530744F4A081B18128
S11313509D012F5F3F4F318320838C9326813781FA
S11313602F5F3F4F3783268314C08B01EC01FB01B1
S11313700084F185E02D1995892BE1F6D8011696A4
S11313808D919C911797019617969C938E9316971F
S1131390CE01DF91CF911F910F910895FA01AA27F1
S11313A0283051F1203181F1E8946F936E7F6E5FA4
S11313B07F4F8F4F9F4FAF4FB1E03ED0B4E03CD052
S11313C0670F781F891F9A1FA11D680F791F8A1F35
S11313D0911DA11D6A0F711D811D911DA11D20D09C
S11313E009F468943F912AE0269F11243019305D56
S11313F03193DEF6CF010895462F4770405D419347
S1131400B3E00FD0C9F7F6CF462F4F70405D4A3393
S113141018F0495D31FD4052419302D0A9F7EACF5B
S1131420B4E0A6959795879577956795BA95C9F78A
S113143000976105710508959B01AC010A2E06947D
S11314405795479537952795BA95C9F7620F731F36
S10F1450841F951FA01D0895F894FFCF81
S113145C01040102040810204080257500FFFF01DF
S113146C8007E0781E8001AAAA5555CCCC3333F002
S113147CF000FF8FB3CDF102400420F81F2D2D2D69
S113148C2D2D2D2D2D2D2D2D2D2D2D2D2D2D2D2D7C
S113149C2D0020202020202075432D426F61726482
S11314AC2020202020200041546D656761323536A0
S11314BC30206174203136204D487A0050726573A7
S11314CC7320616E79206B657920746F2072756E50
S11314DC00202072656C6561736520616C6C206BF7
S10B14EC6579732020003A0029
S9030000FC
