S01800007543426F617264426569737069656C652E73726563DA
S113000071C000008FC000008DC000008BC00000D4
S113001089C0000087C0000085C0000083C00000C4
S113002081C000007FC000007DC000007BC00000D4
S113003079C0000077C0000075C0000073C00000E4
S113004071C000006FC000006DC000006BC00000F4
S113005069C0000067C0000065C000008BC60000D6
S113006061C000005FC000005DC000005BC0000014
S113007059C0000057C0000055C0000053C0000024
S113008051C000004FC000004DC000004BC0000034
S113009049C0000047C0000045C0000043C0000044
S11300A041C000003FC000003DC000003BC0000054
S11300B039C0000037C0000035C0000033C0000064
S11300C031C000002FC000002DC000002BC0000074
S11300D029C0000027C0000025C0000023C0000084
S11300E021C0000011241FBECFEFD1E2DEBFCDBF7F
S11300F000E00CBF12E0A0E0B2E0E2E2F5E100E0D3
S11301000BBF02C007900D92AA3EB107D9F723E0B6
S1130110AAEEB2E001C01D92A23BB207E1F703D000
S11301200C948F0A6DCFCF93DF9300D01F921F9250
S1130130CDB7DEB781E06DD310E0512C312C412CCA
S1130140C12CD12CE12CF12C00E0712C812C1C82CF
S11301501B82212C20E02D834A82B12CA72C05D1AF
S1130160982E8D81809589218D83817089839D81CD
S113017092709D83F8D0282F30E0A8E8B3E168D6C8
S11301802FEF30E040E050E041D63901113029F141
S113019038F0123009F43CC0133009F44CC075C077
S11301A08AE092E09F938F933FD411E00F900F90D9
S11301B02981211101C010E01A82512C212C412CDB
S11301C0312C0F2EF8ECCF2EF02DD12CE12CF12C6C
S11301D000E0B12CA12C812C9AC08FE192E09F9376
S11301E08F9322D40F900F902D81211113E084EE70
S11301F068168CE0780608F412E09981992309F4D2
S11302003FC010E00F2EFAEF4F2EF02D312C3DC0E1
S113021084E392E09F938F9307D40F900F9025E788
S113022062162EE0720608F010E08981882309F432
S113023092C010E090C089E492E09F938F93F4D32E
S11302400F900F9024EE62162CE0720608F412E070
S11302508981811110E0EB81FC81EE0FFF1FE25ACE
S1130260FD4F508021809D81992379F08B819C8161
S113027001969C838B83419740F01C821B8205C0AE
S11302800F2EFAEF4F2EF02D312C9A819923A1F1E4
S11302902C2D3D2D4E2D5F2D602F7B2D8A2D982DDD
S11302A02539310541055105610571058105910522
S11302B019F010F0412C312C2C2D3D2D4E2D5F2D9D
S11302C0602F7B2D8A2D982D273C31054105510542
S11302D06105710581059105D1F0C8F0412C0F2EFF
S11302E0FAEF3F2EF02DC12CD12CE12CF12C00E0A3
S11302F0B12CA12C812C0BC00F2EF8ECCF2EF02D9D
S1130300D12CE12CF12C00E0B12CA12C812C852DD9
S1130310922D26D0642D70E040E050E0832D90E0D3
S113032052D08FE39CE90197F1F700C000002C2D17
S11303303D2D4E2D5F2D602F7B2D8A2D982DAAE00B
S1130340F4D5C22ED32EE42EF52E062FB72EA82ECA
S1130350892E9D8204CF91E09A83512C212C98CF31
S113036082B995B9089586B10895809109010895D7
S113037083E084BD8BE085BD81E080936E0089EFCE
S113038087BD089511BA10BA10920801109207019E
S113039080E480937C008FE080937E008FEF8093D5
S11303A07D00EAE7F0E087EA808310927B00808199
S11303B080648083808184FFFDCFEAE7F0E0808160
S11303C08F7E808308952FEF33E0F901E81BF90B4A
S11303D0C901861B970B241B350BF093A900E093EE
S11303E0A8009093AB008093AA003093AD002093B3
S11303F0AC0008958EEF8093A0008BE18093A10060
S113040083E08093A7008FEF8093A60040E050E044
S113041060E070E080E090E0D6CF0895882311F08A
S1130420A09A0895A0980895882311F0A19A089598
S1130430A1980895811104C084B58F7D84BD089569
S113044094B5906294BD88BD0895EF92FF920F9386
S11304501F93CF93DF937C01EB0181E0DFDF05E0A5
S113046010E080E0E1DF81E0DFDF01501109C9F72E
S113047080E0D4DF80E0D8DF81E0D6DF83E4E816D3
S1130480F10419F480E0CADF02C081E0C7DF80E034
S1130490CBDF81E0C9DF80E0C1DF80E0C5DF81E040
S11304A0C3DF04E010E080E0BFDFC0FF03C081E0F1
S11304B0B5DF02C080E0B2DFD695C79580E0B4DF37
S11304C081E0B2DF0150110971F780E0A7DF04E099
S11304D010E080E0A9DF81E0A7DF01501109C9F72E
S11304E004E010E080E0A0DFC0FF03C081E096DFFD
S11304F002C080E093DFD695C79580E095DF81E068
S113050093DF0150110971F780E088DFC4E0D0E087
S113051080E08ADF81E088DF2197D1F781E07EDF08
S113052087EC90E00197F1F700C00000DF91CF91D4
S11305301F910F91FF90EF9008951F93CF93DF9336
S1130540CDB7DEB765970FB6F894DEBF0FBECDBF4B
S11305509E01205E3F4F4E8D5F8D65E170E0CE01C0
S11305600196F8D46D8D8C8D90E2899F600D1124D5
S1130570606870E083E490E068DF6981662379F065
S113058010E01F5F70E084E490E05FDFE1E0F0E002
S1130590EC0FFD1FE10FF11D60816111F2CF659633
S11305A00FB6F894DEBF0FBECDBFDF91CF911F9180
S11305B008952F923F924F925F926F927F928F9203
S11305C09F92AF92BF92CF92DF92EF92FF920F93DE
S11305D01F93CF93DF93CDB7DEB7E3970FB6F894AD
S11305E0DEBF0FBECDBF8AAB6BABEDA6FEA6702EF1
S11305F0612E522E432ECFA6A8AA8C2D8A0D89AB2C
S1130600853170F08EE792E09F938F939BA99F931F
S1130610EAA9EF9392DF0F900F900F900F90A8C06C
S11306204E01F5E18F0E911CCE0101969CA78BA77C
S1130630242E352E0F2EFAE0AF2EF02DB12CC12C26
S1130640D12CE12CF12C00E010E02DA53EA5472D86
S1130650562D652D742D822D932D09D4205DF40122
S113066022934F012DA53EA5472D562D652D742DA2
S1130670822D932DFED32DA73EA7742E652E562EC4
S1130680472E282E392E8BA59CA58815990591F601
S113069084E199A9891BEFA5EE2389F0FE017596E3
S11306A02FA5280FA1E0B0E0AC0FBD1FA80FB11D0E
S11306B09C9191938F5F8213F5CF3FA502C0282FA1
S11306C03FA5F8A9FF23F1F0FE01E30FF11D8EE22F
S11306D0858B91E0930F38A9390F892F291BE5E108
S11306E0F0E0EC0FFD1FE80FF11D922F980FA1E031
S11306F0B0E0AC0FBD1FA90FB11D9C9190838F5F1B
S11307003813EDCFFE01E30FF11D158A8D89803377
S113071011F58FA5482F50E04150510914161506C4
S1130720D4F480E090E020E060E22F5FE5E1F0E0C7
S1130730EC0FFD1FE80FF91F6083822F90E0E5E1C5
S1130740F0E0EC0FFD1FE80FF91F3081303319F48E
S11307508417950754F3CE0145969F938F939BA9D5
S11307609F93EAA9EF93E9DE0F900F900F900F90FB
S1130770E3960FB6F894DEBF0FBECDBFDF91CF91E5
S11307801F910F91FF90EF90DF90CF90BF90AF90AB
S11307909F908F907F906F905F904F903F902F909D
S11307A0089561E070E083E490E04FDE8FE39FE121
S11307B00197F1F700C0000082E392E09F938F93CA
S11307C01F921F92BADE0F900F900F900F90089512
S11307D081E02ADE80E022DE64E370E083E490E0DE
S11307E034DE69E070E083E490E02FDE60E370E0E3
S11307F083E490E02ADE6CE070E083E490E025DEA0
S1130800D0DF67E070E083E490E01FDE80E012CE8A
S113081008954F925F926F927F928F929F92AF92C0
S1130820BF92CF92DF92EF92FF920F931F93CF93D9
S1130830DF93C82F85B785BF12B88FEF81B915B87C
S113084084B988B917B88BB91AB88EB91DB872981B
S113085011BA10BA94E094BB93B3936093BB9D9A7E
S113086097EC9093020198E3909301011092050193
S11308708093040110920801109207018CE3809385
S11308800B0110920A01789473DDA2DF7BDDB2DDE7
S1130890CC2309F4B8C08FEFCDDD40E050E06FEF1A
S11308A073E080E090E08FDD83E992E09F938F9383
S11308B01F921F9242DE88EA92E09F938F931F92C9
S11308C081E08F933ADE8EE792E09F938F931F929D
S11308D082E08F9332DE8DEB92E09F938F931F9291
S11308E083E08F932ADE8DB79EB740960FB6F894B7
S11308F09EBF0FBE8DBF88248394C0E0712C9924C1
S11309009394D0E0CC24C394D12CE12C6894FF249C
S1130910F7F866246394512C09E011E00F2EF2EDF0
S1130920AF2EF2E0BF2EF02D0F2EF3E04F2EF02D60
S1130930992049F0C7010D2E02C0969587950A9417
S1130940E2F70EDD08C0C6010D2E02C0880F991F04
S11309500A94E2F705DDDF5FD13128F0862D91108E
S1130960852D982ED0E0882011F0CE5F01C0C250B2
S11309708C2F60DDCE3F21F0C83719F4862C01C0DE
S1130980852C71103BC0F8018081837C91F040E09C
S113099050E066E272E08FEF93E015DDBF92AF9214
S11309A01F924F92CADD0F900F900F900F90762CEC
S11309B025C08FEF9CE70197F1F700C00000B8CF86
S11309C0F0DE80E037DD80E090E0CADC40E050E01B
S11309D060E070E080E090E0F6DC10923903109261
S11309E03A0310923B0310923C0310923D03109281
S11309F03E0310923F031092400305C0F80180812A
S1130A00837CB9F6DDCFDF91CF911F910F91FF90D9
S1130A10EF90DF90CF90BF90AF909F908F907F909A
S1130A206F905F904F9008956F927F928F929F92F4
S1130A30AF92BF92CF92DF92EF92FF920F931F93E8
S1130A40CF93DF93CDB7DEB760970FB6F894DEBFD0
S1130A500FBECDBF809100028823B1F1A2DE1092B7
S1130A60000210923703109236030F2EFEE28F2EEF
S1130A70F3E09F2EF02D0EEE12E0A0E0B0E040E295
S1130A80BD01F401119211924F01F801419381E0EB
S1130A9090E013C062957295707F7627607F762709
S1130AA062517D4FFB01E20FF31F10821196005F2C
S1130AB01F4FA430B10521F707C09C014193019653
S1130AC080319105D1F7E6CF8091360390913703B9
S1130AD0019690933703809336039E012C5D3F4F1C
S1130AE04AA15BA160E170E0CE01019633D28E0190
S1130AF00F5F1F4F4E01F1E18F0E911CF80190E042
S1130B0030E221E0DF018081882319F0992319F074
S1130B1001C0922F3C933196E815F90599F7188A8C
S1130B206EEE72E0CE0101960CD2882309F47EC0E9
S1130B300F2EF4E36F2EF3E07F2EF02D6EE173E0C1
S1130B404EEE52E0F301929182913F0193838283AE
S1130B50DB0150979B01205F3F4FFB018D918193F7
S1130B60E217F307D9F7605171096417750751F754
S1130B70F80181918F01FA018193AF0108151905DC
S1130B80B9F7809136039091370390932F038093A4
S1130B902E038091010294E0D92ED81AF3E0FD15BA
S1130BA008F45BC083E0B82EBD180F2EF5E06F2E5D
S1130BB0F02D0F2EF7EE8F2EF2E09F2EF02D68947D
S1130BC0772472F80B2D10E0C80182959295907FDE
S1130BD09827807F982782519D4F9F938F936F9280
S1130BE0DF92ABDC9F928F927F92DF92A6DC000FA4
S1130BF0111FF801E25DFC4F00811181A12CC72C6B
S1130C00E02EF12E00E010E020E030E040E050E083
S1130C1060E08D2DCEDCD394BA940FB6F894DEBF89
S1130C200FBECDBF94E0D912CDCF17C000913603CB
S1130C301091370310932F0300932E03A12C689473
S1130C40CC24C2F8E02EF12E00E010E020E030E0E9
S1130C5040E050E060E083E0ACDC60960FB6F894CE
S1130C60DEBF0FBECDBFDF91CF911F910F91FF90DB
S1130C70EF90DF90CF90BF90AF909F908F907F9038
S1130C806F900895CF93DF93CDB7DEB728970FB653
S1130C90F894DEBF0FBECDBF88E0E2E0F2E0DE01F3
S1130CA0119601900D928A95E1F7E5E0F1E08081DB
S1130CB08F7B8083E091EC02F091ED0281E090E083
S1130CC08C0F9D1FE80FF91F808190E09093EB0239
S1130CD08093EA02A2EBB3E022E433E0E5E0F1E042
S1130CE05E914E918091EA029091EB0284239523C8
S1130CF0892B21F080818062808303C080818F7D75
S1130D00808380818061808380818F7E8083A2172D
S1130D10B30731F7E5E0F1E08081877F808380814C
S1130D20887F808390818091EC02892B80838081ED
S1130D30806480838081886080838091EC029091BC
S1130D40ED028730910530F401969093ED02809383
S1130D50EC0207C01092ED021092EC0281E0809345
S1130D60380328960FB6F894DEBF0FBECDBFDF91CF
S1130D70CF9108951F920F920FB60F9211240BB6C4
S1130D800F922F933F934F935F936F937F938F9320
S1130D909F93AF93BF93EF93FF93209139033091C7
S1130DA03A0340913B0350913C0360913D037091A1
S1130DB03E0380913F0390914003A1E0B6D020937D
S1130DC0390330933A0340933B0350933C036093BD
S1130DD03D0370933E0380933F03909340038091BF
S1130DE0410381114FDFFF91EF91BF91AF919F912B
S1130DF08F917F916F915F914F913F912F910F90C0
S1130E000BBE0F900FBE0F901F901895A1E21A2EE3
S1130E10AA1BBB1BFD010DC0AA1FBB1FEE1FFF1F9A
S1130E20A217B307E407F50720F0A21BB30BE40BEA
S1130E30F50B661F771F881F991F1A9469F7609531
S1130E407095809590959B01AC01BD01CF010895EB
S1130E50A29FB001B39FC001A39F700D811D1124F7
S1130E60911DB29F700D811D1124911D08956894E8
S1130E7001C0E8948F929F92CF93DF9305D0DF91C6
S1130E80CF919F908F90089588249924F401E401D0
S1130E90B0E49F93AA279A158B049C04ED05FE05E4
S1130EA0CF05D007A10798F4AD2FDC2FCF2FFE2F4D
S1130EB0E92D982C892E982F872F762F652F542F64
S1130EC0432F322F2227B85031F7BF9127C01B2E52
S1130ED0BF91BB27220F331F441F551F661F771F67
S1130EE0881F991F881C991CEE1FFF1FCC1FDD1F34
S1130EF0AA1FBB1F8A149B04EC05FD05CE05DF0564
S1130F00A007B10748F08A189B08EC09FD09CE092F
S1130F10DF09A00BB10B21601A94E1F62EF49401C1
S1130F20AF01BE01CD01000C08950024A7FD00947B
S1130F302A0F301D401D501D601D701D801D901D09
S1130F400895FB01DC018D91019080190110D9F302
S1130F50990B08950F931F93CF93DF93CDB7DEB70B
S1130F602E970FB6F894DEBF0FBECDBF8C01FA01E9
S1130F7086E08C831A83098377FF02C060E070E8FF
S1130F80CB0101979E838D83A901BF01CE010196F8
S1130F9019D04D815E8157FD0AC02F8138854217D3
S1130FA053070CF49A01F801E20FF31F10822E96F6
S1130FB00FB6F894DEBF0FBECDBFDF91CF911F9166
S1130FC00F9108952F923F924F925F926F927F926A
S1130FD08F929F92AF92BF92CF92DF92EF92FF9245
S1130FE00F931F93CF93DF93CDB7DEB72B970FB635
S1130FF0F894DEBF0FBECDBF6C017B018A01FC01FA
S113100017821682838181FFBFC1CE0101963C0104
S1131010F6019381F70193FD859193FF81917F01FF
S1131020882309F4ADC1853239F493FD859193FF8A
S113103081917F01853221F4B60190E0D6D1E8CFC9
S1131040912C212C312CFFE1F315D8F08B3279F05F
S113105038F4803279F08332A1F4232D20611DC04D
S11310608D3261F0803369F4232D216016C0832D05
S11310708260382EE32DE4603E2E2AC0F32DF86002
S11310801DC037FC2DC020ED280F2A3040F08E32D1
S1131090B9F436FC75C1232D2064322E19C036FEF6
S11310A006C08AE0989E200D1124922E11C0EAE019
S11310B02E9E200D1124222EF32DF0623F2E08C007
S11310C08C3621F4832D8068382E02C0883641F492
S11310D0F70193FD859193FF81917F018111B3CF36
S11310E0982F9F7D9554933028F40C5F1F4F9FE3F6
S11310F099830DC0833631F0833771F0833509F05D
S113110055C020C0F801808189830E5F1F4F882459
S11311108394912C530112C02801F2E04F0E511C0C
S1131120F801A080B18036FE03C0692D70E002C0D2
S11311306FEF7FEFC5014ED14C018201F32DFF7794
S11311403F2E15C0280122E0420E511CF801A08058
S1131150B18036FE03C0692D70E002C06FEF7FEFEF
S1131160C5012DD14C01F32DF0683F2E820133FCD3
S113117019C0822D90E088169906A0F4B60180E289
S113118090E033D12A94F5CFF50137FC859137FEF1
S113119081915F01B60190E028D121102A9421E0C9
S11311A0821A91088114910479F7E1C0843611F010
S11311B0893639F5F80137FE07C060817181828173
S11311C093810C5F1F4F08C060817181072E000C52
S11311D0880B990B0E5F1F4FF32DFF763F2E97FF61
S11311E009C090958095709561957F4F8F4F9F4F63
S11311F0F0683F2E2AE030E0A30133D1882E861810
S113120044C0853731F4232D2F7EB22E2AE030E0FE
S113121025C0932D997FB92E8F36C1F018F48835E7
S113122079F0AEC0803719F0883721F0A9C0E92FD2
S1131230E061BE2EB4FE0DC0FB2DF460BF2E09C0CC
S113124034FE0AC0292F2660B22E06C028E030E002
S113125005C020E130E002C020E132E0F801B7FE31
S113126007C060817181828193810C5F1F4F06C02A
S11312706081718180E090E00E5F1F4FA301F1D087
S1131280882E8618FB2DFF773F2E36FE0DC0232DAA
S11312902E7FA22E891458F434FE0BC032FC09C0F0
S11312A0832D8E7EA82E05C0B82CA32C03C0B82C89
S11312B001C0B92CA4FE0FC0FE01E80DF11D808110
S11312C0803321F49A2D997EA92E09C0A2FE06C06E
S11312D0B394B39404C08A2D867809F0B394A3FC24
S11312E010C0A0FE06C0B21480F4280C922C9B18E7
S11312F00DC0B21458F4B60180E290E076D0B394F5
S1131300F8CFB21418F42B1802C0982C212CA4FE88
S11313100FC0B60180E390E068D0A2FE16C0A1FC25
S113132003C088E790E002C088E590E0B6010CC0F5
S11313308A2D867851F0A1FE02C08BE201C080E2C2
S1131340A7FC8DE2B60190E050D0891430F4B601C8
S113135080E390E04AD09A94F8CF8A94F301E80DA0
S1131360F11D8081B60190E040D08110F6CF22209B
S113137009F44ECEB60180E290E037D02A94F7CF3C
S1131380F6018681978102C08FEF9FEF2B960FB6EF
S1131390F894DEBF0FBECDBFDF91CF911F910F91A7
S11313A0FF90EF90DF90CF90BF90AF909F908F9081
S11313B07F906F905F904F903F902F900895FC0125
S11313C00590615070400110D8F7809590958E0F6C
S11313D09F1F0895FC016150704001900110D8F7DF
S11313E0809590958E0F9F1F08950F931F93CF9311
S11313F0DF93FB01238121FD03C08FEF9FEF2CC0FE
S113140022FF16C046815781248135814217530734
S113141044F4A081B1819D012F5F3F4F318320832C
S11314208C93268137812F5F3F4F3783268314C0E7
S11314308B01EC01FB010084F185E02D1995892BCA
S1131440E1F6D80116968D919C91179701961796FF
S11314509C938E931697CE01DF91CF911F910F919C
S11314600895FA01AA27283051F1203181F1E89436
S11314706F936E7F6E5F7F4F8F4F9F4FAF4FB1E083
S11314803ED0B4E03CD0670F781F891F9A1FA11D7E
S1131490680F791F8A1F911DA11D6A0F711D811D7F
S11314A0911DA11D20D009F468943F912AE0269F44
S11314B011243019305D3193DEF6CF010895462FA3
S11314C04770405D4193B3E00FD0C9F7F6CF462F84
S11314D04F70405D4A3318F0495D31FD40524193ED
S11314E002D0A9F7EACFB4E0A695979587957795AA
S11314F06795BA95C9F700976105710508959B0131
S1131500AC010A2E06945795479537952795BA95B9
S1131510C9F7620F731F841F951FA01D0895F894C7
S1051520FFCFF7
S11315220104010204081020408041757320202028
S113153220202020202020202020202020200041A4
S11315426E20202020202020202020202020202047
S113155220202000416B6B75204C65657220202091
S11315622020202020202020004D757374657220D5
S11315725765636873656C6E202020202000FFFF8E
S1131582018007E0781E8001AAAA5555CCCC3333DA
S1131592F0F000FF8FB3CDF102400420F81F2D2D8F
S11315A22D2D2D2D2D2D2D2D2D2D2D2D2D2D2D2D65
S11315B22D2D0020202020202075432D426F6172A2
S11315C2642020202020200041546D65676132355B
S11315D23630206174203136204D487A00507265CD
S11315E2737320616E79206B657920746F20727534
S11315F26E00202072656C6561736520616C6C20DD
S10D16026B6579732020003A0000A4
S9030000FC
