S01800007543426F617264426569737069656C652E73726563DA
S113000071C000008FC000008DC000008BC00000D4
S113001089C0000087C0000085C0000083C00000C4
S113002081C000007FC000007DC000007BC00000D4
S113003079C0000077C0000075C0000073C00000E4
S113004071C000006FC000006DC000006BC00000F4
S113005069C0000067C0000065C000000C941D0A60
S113006061C000005FC000005DC000005BC0000014
S113007059C0000057C0000055C0000053C0000024
S113008051C000004FC000004DC000004BC0000034
S113009049C0000047C0000045C0000043C0000044
S11300A041C000003FC000003DC000003BC0000054
S11300B039C0000037C0000035C0000033C0000064
S11300C031C000002FC000002DC000002BC0000074
S11300D029C0000027C0000025C0000023C0000084
S11300E021C0000011241FBECFEFD1E2DEBFCDBF7F
S11300F000E00CBF12E0A0E0B2E0E2EEFDE100E0BF
S11301000BBF02C007900D92AC39B107D9F723E0B9
S1130110ACE9B2E001C01D92AA31B207E1F72ED0DA
S11301200C94EF0E6DCF0F931F9380FF0DC0880FBB
S1130130991F880F991F880F991FFC01E61BF70B65
S1130140BF01695F7F4F08C0880F991F880F991FEF
S1130150880F991F680F791F6F3F710509F058F4D4
S1130160FB01EE0FFF1F6E0F7F1FF801E60FF71F55
S11301702083318342831F910F910895CF93DF939E
S1130180CDB7DEB7C453D3400FB6F894DEBF0FBE6D
S1130190CDBF89E189839FE09A831B828C838D8301
S11301A01E8224E12F83188629879A8798E09B87EB
S11301B01C868D878E878F8780E0BCD780E057D6DA
S11301C0BC0180E090E00E94E20B21E0C05FDC4FC4
S11301D02883C051D340C35DDC4F1882CD52D34035
S11301E0C25DDC4F1882CE52D340C15DDC4F188211
S11301F0CF52D340C05DDC4F1882C053D340CF5C94
S1130200DC4F1882C153D340CE5CDC4F1882C253FA
S1130210D340CD5CDC4F1882C353D340CC5CDC4F5D
S11302201882C453D340C95EDC4F1882C751D340EF
S1130230C85EDC4F1882C851D340C75EDC4F1882B9
S1130240C951D340C65EDC4F1882CA51D340C55E43
S1130250DC4F1882CB51D340C45EDC4F1882CC51A2
S1130260D340C35EDC4F1882CD51D340C25EDC4F15
S11302701882CE51D340E12CF12C00E0CE5EDC4F4D
S11302801882C251D340CD5EDC4F1882C351D34093
S1130290CC5EDC4F1882C451D340CB5EDC4F188255
S11302A0C551D340CA5EDC4F1882C651D340CA5DE3
S11302B0DC4F1882C652D340CE5DDC4F1882C25246
S11302C0D340C15EDC4F1882CF51D340CB5DDC4FAD
S11302D01882C552D34084E090E0C05EDC4F99831D
S11302E08883C052D3400F2EFFE02F2E312CF02DE7
S11302F010E0C95DDC4F19821882C752D340CD5D2E
S1130300DC4F19821882C352D340412C512C320144
S11303104E0190EF891A9CEF990AE1E0C75DDC4F2A
S1130320E883C952D340C65DDC4F1882CA52D34019
S1130330C55DDC4F1882CB52D340C45DDC4F1882BC
S1130340CC52D340BE2CAF2C4DC00E94970B2FE152
S113035030E040E050E00E949B0ACD5DDC4F7983A1
S11303606883C352D3400E94970B27E030E040E0FB
S113037050E00E949B0AC95DDC4F79836883C752B1
S1130380D340CD5DDC4F88819981C352D3409B011A
S1130390C05EDC4F48815981C052D340C75DDC4FF9
S11303A06881C952D340C65DDC4F7881CA52D340BC
S11303B0C55DDC4FE881CB52D340C45DDC4FF8818E
S11303C0CC52D34004C0462E572E6E2E7F2E82155B
S11303D0930519F424173507B1F3CF5EDC4F188168
S11303E0C151D34016D5CF5EDC4F8883C151D34071
S11303F0109518238BE03BD56C01E12CF12C8AE09D
S113040036D5A0E0B0E011FF06C021E0C05FDC4FAC
S11304102883C051D3408235E3E09E07A105B1058E
S1130420D8F4893C9105A105B10558F5CA5DDC4FA6
S11304301882C652D340CE5DDC4F1882C252D340DC
S113044021E0C15EDC4F2883CF51D340CB5DDC4F2C
S11304501882C552D34015C0CA5DDC4F1882C652FB
S1130460D340CE5DDC4F1882C252D340C15EDC4F14
S11304701882CF51D34081E0CB5DDC4F8883C552D5
S1130480D34099ECC916D104E104F104E8F0E2E5A3
S1130490CE16E3E0DE06E104F10458F121E0CA5D82
S11304A0DC4F2883C652D340CE5DDC4F1882C25243
S11304B0D340C15EDC4F1882CF51D340CB5DDC4FBB
S11304C01882C552D34015C0CA5DDC4F1882C6528B
S11304D0D34081E0CE5DDC4F8883C252D340C15EFD
S11304E0DC4F1882CF51D340CB5DDC4F1882C5520C
S11304F0D340C05FDC4F9881C051D340913031F07C
S113050008F48EC0923009F4C0C05DC3FE01709639
S113051010821182128233968E169F06C9F78CE0E0
S113052092E09F938F9383E08F9301E00F938ED596
S113053010271170C05FDC4F1883C051D3400F9057
S11305400F900F900F90C35DDC4F1882CD52D340B3
S1130550C25DDC4F1882CE52D340C15DDC4F18829D
S1130560CF52D340C05DDC4F1882C053D340CF5C20
S1130570DC4F1882C153D340CE5CDC4F1882C25387
S1130580D340CD5CDC4F1882C353D340CC5CDC4FEA
S11305901882C453D340C95EDC4F1882C751D3407C
S11305A0C85EDC4F1882C851D340C75EDC4F188246
S11305B0C951D340C65EDC4F1882CA51D340C55ED0
S11305C0DC4F1882CB51D340C45EDC4F1882CC512F
S11305D0D340C35EDC4F1882CD51D340C25EDC4FA2
S11305E01882CE51D340B12CA12C00E0CE5EDC4F5A
S11305F01882C251D340CD5EDC4F1882C351D34020
S1130600CC5EDC4F1882C451D340CB5EDC4F1882E1
S1130610C551D340CA5EDC4F1882C651D340D3C201
S113062088E192E09F938F9387E08F9381E08F938B
S11306300DD50F900F900F900F902B2D3A2D402F2A
S1130640CE5EDC4F5881C251D340CD5EDC4F688111
S1130650C351D340CC5EDC4F7881C451D340CB5ED0
S1130660DC4F8881C551D340CA5EDC4F9881C651A6
S1130670D3402B3B3240410551056105710581058D
S1130680910511F008F04AC34FC38EE192E09F93A5
S11306908F9387E08F9381E08F93D8D48E01005F8E
S11306A01F4F20E030E040E0C05EDC4F688179817C
S11306B0C052D340C10137DD0F900F900F900F90BF
S11306C0C15EDC4F2881CF51D340222309F442C0BC
S11306D00F2EF4E6AF2EF02DB12CC12CD12CE12C31
S11306E0F12C00E010E0C95EDC4F2881C751D340F3
S11306F0C85EDC4F3881C851D340C75EDC4F4881A7
S1130700C951D340C65EDC4F5881CA51D340C55E3F
S1130710DC4F6881CB51D340C45EDC4F7881CC512F
S1130720D340C35EDC4F8881CD51D340C25EDC4FE1
S11307309881CE51D3401BD7A0E083D759F481E0F0
S1130740281A31080AF0DAC20F2EFFE12F2E312CBD
S1130750F02DD4C2CB5DDC4F9881C552D340992390
S113076009F443C00F2EF4E6AF2EF02DB12CC12CAA
S1130770D12CE12CF12C00E010E0C95EDC4F288183
S1130780C751D340C85EDC4F3881C851D340C75EDF
S1130790DC4F4881C951D340C65EDC4F5881CA51F1
S11307A0D340C55EDC4F6881CB51D340C45EDC4F7F
S11307B07881CC51D340C35EDC4F8881CD51D34086
S11307C0C25EDC4F9881CE51D340D1D6A0E039D758
S11307D009F09CC2EFEF2E1A3E0A20E222163104E1
S11307E00CF48CC2212C312C89C2CE5DDC4F888163
S11307F0C252D340882309F451C00F2EF4E6AF2E21
S1130800F02DB12CC12CD12CE12CF12C00E010E006
S1130810C95EDC4F2881C751D340C85EDC4F3881A4
S1130820C851D340C75EDC4F4881C951D340C65E2E
S1130830DC4F5881CA51D340C55EDC4F6881CB512F
S1130840D340C45EDC4F7881CC51D340C35EDC4FCF
S11308508881CD51D340C25EDC4F9881CE51D340C4
S113086086D6A0E0EED609F06DC0C05EDC4F88816C
S11308709981C052D3400197C05EDC4F998388832D
S1130880C052D34099230CF05DC087E090E0C05E75
S1130890DC4F99838883C052D34054C0CA5DDC4F77
S11308A09881C652D340992309F44CC00F2EF4E624
S11308B0AF2EF02DB12CC12CD12CE12CF12C00E069
S11308C010E0C95EDC4F2881C751D340C85EDC4FBD
S11308D03881C851D340C75EDC4F4881C951D340E9
S11308E0C65EDC4F5881CA51D340C55EDC4F688177
S11308F0CB51D340C45EDC4F7881CC51D340C35E2E
S1130900DC4F8881CD51D340C25EDC4F9881CE51FB
S1130910D3402DD6A0E095D6A9F4C05EDC4F8881E3
S11309209981C052D3400196C05EDC4F998388837D
S1130930C052D340089734F0C05EDC4F198218824D
S1130940C052D340C05EDC4FC880D980C052D3406F
S113095071018E01005F1F4F20E032E345E0B601D4
S1130960C101E1DB45284628472809F1E0D625E006
S113097030E040E050E0DFD59B01220F331F620FCF
S1130980731FE1E0F0E0EC0FFD1FE60FF71F20817D
S113099031814281C95DDC4F68817981C752D3407E
S11309A0CD5DDC4F88819981C352D340BCDBCD5DE2
S11309B0DC4F88819981C352D3408E159F0509F07D
S11309C09AC0C95DDC4F88819981C752D3408C1588
S11309D09D0509F095C00F2EF4E6AF2EF02DB12C35
S11309E0C12CD12CE12CF12C00E010E0C95EDC4FCD
S11309F02881C751D340C85EDC4F3881C851D340E9
S1130A00C75EDC4F4881C951D340C65EDC4F588174
S1130A10CA51D340C55EDC4F6881CB51D340C45E1C
S1130A20DC4F7881CC51D340C35EDC4F8881CD51FB
S1130A30D340C25EDC4F9881CE51D34098D5A0E01C
S1130A4000D609F062C0C35DDC4F2881CD52D3408B
S1130A50C25DDC4F3881CE52D340C15DDC4F48814A
S1130A60CF52D340C05DDC4F5881C053D340CF5CDC
S1130A70DC4F6881C153D340CE5CDC4F7881C253D4
S1130A80D340CD5CDC4F8881C353D340CC5CDC4F76
S1130A909881C453D340A1E0C8D5C35DDC4F2883FB
S1130AA0CD52D340C25DDC4F3883CE52D340C15DBA
S1130AB0DC4F4883CF52D340C05DDC4F5883C053D2
S1130AC0D340CF5CDC4F6883C153D340CE5CDC4F52
S1130AD07883C253D340CD5CDC4F8883C353D34067
S1130AE0CC5CDC4F9883C453D34044244394512CAE
S1130AF0612C712C0EC0412C512C612C712C09C01D
S1130B00412C512C612C712C04C0412C512C612C92
S1130B10712CCC5CDC4F9881C453D3409F93CD5C43
S1130B20DC4FE881C353D340EF93CE5CDC4F288184
S1130B30C253D3402F93CF5CDC4F8881C153D34041
S1130B408F93C05DDC4F9881C053D3409F93C15DA8
S1130B50DC4FE881CF52D340EF93C25DDC4F288154
S1130B60CE52D3402F93C35DDC4F8881CD52D34006
S1130B708F9386E292E09F938F9383E08F9381E03B
S1130B808F9364D20FB6F894DEBF0FBECDBFB12CE5
S1130B90A12C00E0CE5EDC4F1882C251D340CD5E62
S1130BA0DC4F1882C351D340CC5EDC4F1882C45151
S1130BB0D340CB5EDC4F1882C551D340CA5EDC4FB4
S1130BC01882C651D340CE01409683D42B2D3A2DA2
S1130BD0402FCE5EDC4F5881C251D340CD5EDC4FF6
S1130BE06881C351D340CC5EDC4F7881C451D3407B
S1130BF0CB5EDC4F8881C551D340CA5EDC4F9881FF
S1130C00C651D340AAE011D5B22EA32E042FCE5E36
S1130C10DC4F5883C251D340CD5EDC4F6883C3514F
S1130C20D340CC5EDC4F7883C451D340CB5EDC4FE1
S1130C308883C551D340CA5EDC4F9883C651D340E4
S1130C40C95EDC4F2881C751D340C85EDC4F388170
S1130C50C851D340C75EDC4F4881C951D340C65EFA
S1130C60DC4F5881CA51D340C55EDC4F6881CB51FB
S1130C70D340C45EDC4F7881CC51D340C35EDC4F9B
S1130C808881CD51D340C25EDC4F9881CE51D34090
S1130C90CCD4C95EDC4F2883C751D340C85EDC4F37
S1130CA03883C851D340C75EDC4F4883C951D34011
S1130CB0C65EDC4F5883CA51D340C55EDC4F68839F
S1130CC0CB51D340C45EDC4F7883CC51D340C35E58
S1130CD0DC4F8883CD51D340C25EDC4F9883CE5124
S1130CE0D3408FE39CE90197F1F700C00000411461
S1130CF051046104710409F028CB6FCBCE5DDC4F45
S1130D009881C252D3409111B0CDC8CDCE5DDC4F95
S1130D10E881C252D340E11115CEC0CD22E0C05FBC
S1130D20DC4F2883C051D340CE014096D2D32B2D23
S1130D303A2D402FCE5EDC4F5881C251D340CD5E58
S1130D40DC4F6881C351D340CC5EDC4F7881C45101
S1130D50D340CB5EDC4F8881C551D340CA5EDC4FA3
S1130D609881C651D340AAE060D4B22EA32E042F9A
S1130D70CE5EDC4F5883C251D340CD5EDC4F6883D6
S1130D80C351D340CC5EDC4F7883C451D340CB5E97
S1130D90DC4F8883C551D340CA5EDC4F9883C6516B
S1130DA0D3408FE39CE90197F1F700C000009AE07B
S1130DB0C95EDC4F9883C751D340C85EDC4F1882AC
S1130DC0C851D340C75EDC4F1882C951D340C65EB8
S1130DD0DC4F1882CA51D340C55EDC4F1882CB5118
S1130DE0D340C45EDC4F1882CC51D340C35EDC4F89
S1130DF01882CD51D340C25EDC4F1882CE51D3400D
S1130E0044244394512C612C712C9FCA82B995B906
S1130E10089580910901089583E084BD8BE085BD28
S1130E2081E080936E0089EF87BD089511BA10BAEE
S1130E30109208011092070180E480937C008FE0F7
S1130E4080937E008FEF80937D00EAE7F0E087EAED
S1130E50808310927B00808180648083808184FF02
S1130E60FDCFEAE7F0E080818F7E8083089590E4EF
S1130E7090937C00883060F0ECE7F0E0908188503B
S1130E80892B8083EBE7F0E08081886180830AC04E
S1130E90ECE7F0E09081892B8083EBE7F0E0808140
S1130EA0877E8083EAE7F0E08081806480838081AC
S1130EB084FFFDCF8FEA94E00197F1F700C00000B2
S1130EC08091780020917900EAE7F0E090819F7E9C
S1130ED0908390E0922B08952FEF33E0F901E81B03
S1130EE0F90BC901861B970B241B350BF093A90042
S1130EF0E093A8009093AB008093AA003093AD00D8
S1130F002093AC0008958EEF8093A0008BE1809332
S1130F10A10083E08093A7008FEF8093A60040E0B8
S1130F2050E060E070E080E090E0D6CF0895882340
S1130F3011F0A09A0895A0980895882311F0A19A19
S1130F400895A1980895811104C084B58F7D84BD4E
S1130F50089594B5906294BD88BD0895EF92FF9270
S1130F600F931F93CF93DF937C01EB0181E0DFDFCD
S1130F7005E010E080E0E1DF81E0DFDF01501109EE
S1130F80C9F780E0D4DF80E0D8DF81E0D6DF83E4F6
S1130F90E816F10419F480E0CADF02C081E0C7DF7B
S1130FA080E0CBDF81E0C9DF80E0C1DF80E0C5DF26
S1130FB081E0C3DF04E010E080E0BFDFC0FF03C0D6
S1130FC081E0B5DF02C080E0B2DFD695C79580E04E
S1130FD0B4DF81E0B2DF0150110971F780E0A7DFCF
S1130FE004E010E080E0A9DF81E0A7DF01501109EF
S1130FF0C9F704E010E080E0A0DFC0FF03C081E097
S113100096DF02C080E093DFD695C79580E095DF38
S113101081E093DF0150110971F780E088DFC4E0BB
S1131020D0E080E08ADF81E088DF2197D1F781E09A
S11310307EDF87EC90E00197F1F700C00000DF91BC
S1131040CF911F910F91FF90EF9008951F93CF932D
S1131050DF93CDB7DEB765970FB6F894DEBF0FBE4A
S1131060CDBF9E01205E3F4F4E8D5F8D65E170E0E8
S1131070CE010196B0D36D8D8C8D90E2899F600D69
S11310801124606870E083E490E068DF698166237E
S113109079F010E01F5F70E084E490E05FDFE1E04E
S11310A0F0E0EC0FFD1FE10FF11D60816111F2CF43
S11310B065960FB6F894DEBF0FBECDBFDF91CF911A
S11310C01F91089561E070E083E490E047DF8FE3CF
S11310D09FE10197F1F700C0000084E292E09F9342
S11310E08F931F921F92B2DF0F900F900F900F906B
S11310F0089581E022DF80E01ADF64E370E083E496
S113110090E02CDF69E070E083E490E027DF60E3A7
S113111070E083E490E022DF6CE070E083E490E030
S11311201DDFD0DF67E070E083E490E017DF80E04C
S11311300ACF08954F925F926F927F928F929F92FF
S1131140AF92BF92CF92DF92EF92FF920F931F93D1
S1131150CF93DF93C82F85B785BF12B88FEF81B9BE
S113116015B884B988B917B88BB91AB88EB91DB82F
S1131170729811BA10BA94E094BB93B3936093BB82
S11311809D9A97EC9093020198E390930101109239
S113119005018093040110920801109207018CE369
S11311A080930B0110920A01789436DEA2DF3EDEB2
S11311B0AADECC2309F4B8C08FEFC5DE40E050E0CE
S11311C06FEF73E080E090E087DE86E492E09F9327
S11311D08F931F921F923ADF8BE592E09F938F9338
S11311E01F9281E08F9332DF81E392E09F938F938C
S11311F01F9282E08F932ADF80E792E09F938F9380
S11312001F9283E08F9322DF8DB79EB740960FB66F
S1131210F8949EBF0FBE8DBF88248394C0E0712CC8
S113122099249394D0E0CC24C394D12CE12C6894D9
S1131230FF24F7F866246394512C09E011E00F2E83
S1131240F5E8AF2EF2E0BF2EF02D0F2EF3E04F2E77
S1131250F02D992049F0C7010D2E02C0969587956F
S11312600A94E2F7D3DD08C0C6010D2E02C0880F30
S1131270991F0A94E2F7CADDDF5FD13128F0862D89
S11312809110852D982ED0E0882011F0CE5F01C0FA
S1131290C2508C2F58DECE3F21F0C83719F4862C6B
S11312A001C0852C71103BC0F8018081837C91F0D2
S11312B040E050E066E272E08FEF93E00DDEBF9213
S11312C0AF921F924F92C2DE0F900F900F900F902B
S11312D0762C25C08FEF9CE70197F1F700C0000042
S11312E0B8CFF0DE80E02FDE80E090E08FDD40E0DC
S11312F050E060E070E080E090E0EEDD1092A1024A
S11313001092A2021092A3021092A4021092A502BB
S11313101092A6021092A7021092A80205C0F8012A
S11313208081837CB9F6DDCFDF91CF911F910F913E
S1131330FF90EF90DF90CF90BF90AF909F908F90F1
S11313407F906F905F904F900895CF93DF93CDB7C8
S1131350DEB728970FB6F894DEBF0FBECDBF88E086
S1131360E4E0F2E0DE01119601900D928A95E1F736
S1131370E5E0F1E080818F7B8083E0919E02F09133
S11313809F0281E090E08C0F9D1FE80FF91F808180
S113139090E090939D0280939C02AAE1B3E02AEA34
S11313A032E0E5E0F1E05E914E9180919C029091F3
S11313B09D0284239523892B21F080818062808380
S11313C003C080818F7D8083808180618083808160
S11313D08F7E8083A217B30731F7E5E0F1E08081C7
S11313E0877F80838081887F8083908180919E0223
S11313F0892B80838081806480838081886080835E
S113140080919E0290919F028730910530F401965D
S113141090939F0280939E0207C010929F021092A5
S11314209E0281E08093A00228960FB6F894DEBF56
S11314300FBECDBFDF91CF9108951F920F920FB6CB
S11314400F9211240BB60F922F933F934F935F93F8
S11314506F937F938F939F93AF93BF93EF93FF9378
S11314602091A1023091A2024091A3025091A402C2
S11314706091A5027091A6028091A7029091A802A2
S1131480A1E0D3D02093A1023093A2024093A302FF
S11314905093A4026093A5027093A6028093A702BE
S11314A09093A8028091A90281114FDFFF91EF91DF
S11314B0BF91AF919F918F917F916F915F914F9168
S11314C03F912F910F900BBE0F900FBE0F901F9066
S11314D01895FC015898509AF89420E031E0019056
S11314E0008007D0029005D001900190019001D0B6
S11314F016C007D006D005D004D003D002D001D046
S113150000C0589A001C0000000008F05898000021
S1131510000000000000000008F4589808952150CD
S1131520310909F0DCCF78948FE391E00197F1F76A
S113153000C000000895052E97FB16F400940FD008
S113154057FD05D08AD007FC02D046F408C0509558
S11315504095309521953F4F4F4F5F4F089590959B
S11315608095709561957F4F8F4F9F4F0895689434
S113157001C0E8948F929F92CF93DF9305D0DF91BF
S1131580CF919F908F90089588249924F401E401C9
S1131590B0E49F93AA279A158B049C04ED05FE05DD
S11315A0CF05D007A10798F4AD2FDC2FCF2FFE2F46
S11315B0E92D982C892E982F872F762F652F542F5D
S11315C0432F322F2227B85031F7BF9127C01B2E4B
S11315D0BF91BB27220F331F441F551F661F771F60
S11315E0881F991F881C991CEE1FFF1FCC1FDD1F2D
S11315F0AA1FBB1F8A149B04EC05FD05CE05DF055D
S1131600A007B10748F08A189B08EC09FD09CE0928
S1131610DF09A00BB10B21601A94E1F62EF49401BA
S1131620AF01BE01CD01000C08950024A7FD009474
S11316302A0F301D401D501D601D701D801D901D02
S113164008950024A7FD00942A173005400550058D
S113165060057005800590050895A1E21A2EAA1B65
S1131660BB1BFD010DC0AA1FBB1FEE1FFF1FA2174E
S1131670B307E407F50720F0A21BB30BE40BF50B4B
S1131680661F771F881F991F1A9469F760957095D4
S1131690809590959B01AC01BD01CF0108958F9277
S11316A09F92AF92BF92CF92DF92EF92FF92CF932D
S11316B0DF93EC01688179818A819B8161157105D1
S11316C08105910521F464E279ED8BE597E02DE144
S11316D033EF41E050E02FDF49015A019B01AC0197
S11316E0A7EAB1E45DD36B017C01ACEEB4EFA501D4
S11316F0940162D3DC01CB018C0D9D1DAE1DBF1D79
S1131700B7FF03C00197A109B04888839983AA83CE
S1131710BB83BC01CD019F77DF91CF91FF90EF9008
S1131720DF90CF90BF90AF909F908F9008958F924D
S11317309F92AF92BF92CF92DF92EF92FF9260910D
S113174000027091010280910202909103026115DE
S113175071058105910521F464E279ED8BE597E04B
S11317602DE133EF41E050E0E6DE49015A019B01EF
S1131770AC01A7EAB1E414D36B017C01ACEEB4EF85
S1131780A501940119D3DC01CB018C0D9D1DAE1D67
S1131790BF1DB7FF03C00197A109B04880930002A1
S11317A090930102A0930202B0930302BC01CD0105
S11317B09F77FF90EF90DF90CF90BF90AF909F9076
S11317C08F90089560930002709301028093020247
S11317D09093030208950F931F93CF93DF93CDB794
S11317E0DEB72E970FB6F894DEBF0FBECDBF8C01C7
S11317F0FA0186E08C831A83098377FF02C060E0D4
S113180070E8CB0101979E838D83A901BF01CE01AE
S1131810019619D04D815E8157FD0AC02F8138850C
S1131820421753070CF49A01F801E20FF31F1082D8
S11318302E960FB6F894DEBF0FBECDBFDF91CF91C9
S11318401F910F9108952F923F924F925F926F9242
S11318507F928F929F92AF92BF92CF92DF92EF923C
S1131860FF920F931F93CF93DF93CDB7DEB72B97E0
S11318700FB6F894DEBF0FBECDBF6C017B018A01A9
S1131880FC0117821682838181FFBFC1CE010196BC
S11318903C01F6019381F70193FD859193FF8191BA
S11318A07F01882309F4ADC1853239F493FD859114
S11318B093FF81917F01853221F4B60190E0D6D166
S11318C0E8CF912C212C312CFFE1F315D8F08B3289
S11318D079F038F4803279F08332A1F4232D206139
S11318E01DC08D3261F0803369F4232D216016C050
S11318F0832D8260382EE32DE4603E2E2AC0F32D22
S1131900F8601DC037FC2DC020ED280F2A3040F0B0
S11319108E32B9F436FC75C1232D2064322E19C0E1
S113192036FE06C08AE0989E200D1124922E11C026
S1131930EAE02E9E200D1124222EF32DF0623F2E7C
S113194008C08C3621F4832D8068382E02C0883676
S113195041F4F70193FD859193FF81917F018111FA
S1131960B3CF982F9F7D9554933028F40C5F1F4F6D
S11319709FE399830DC0833631F0833771F083354B
S113198009F055C020C0F801808189830E5F1F4F84
S113199088248394912C530112C02801F2E04F0E45
S11319A0511CF801A080B18036FE03C0692D70E09F
S11319B002C06FEF7FEFC5014ED14C018201F32DC0
S11319C0FF773F2E15C0280122E0420E511CF8017A
S11319D0A080B18036FE03C0692D70E002C06FEFB5
S11319E07FEFC5012DD14C01F32DF0683F2E82010C
S11319F033FC19C0822D90E088169906A0F4B60134
S1131A0080E290E033D12A94F5CFF50137FC85913B
S1131A1037FE81915F01B60190E028D121102A940C
S1131A2021E0821A91088114910479F7E1C0843687
S1131A3011F0893639F5F80137FE07C060817181EC
S1131A40828193810C5F1F4F08C060817181072ED2
S1131A50000C880B990B0E5F1F4FF32DFF763F2E62
S1131A6097FF09C090958095709561957F4F8F4F32
S1131A709F4FF0683F2E2AE030E0A30133D1882E37
S1131A80861844C0853731F4232D2F7EB22E2AE0E8
S1131A9030E025C0932D997FB92E8F36C1F018F40C
S1131AA0883579F0AEC0803719F0883721F0A9C0A5
S1131AB0E92FE061BE2EB4FE0DC0FB2DF460BF2EF5
S1131AC009C034FE0AC0292F2660B22E06C028E0C1
S1131AD030E005C020E130E002C020E132E0F8014E
S1131AE0B7FE07C060817181828193810C5F1F4FB3
S1131AF006C06081718180E090E00E5F1F4FA301FA
S1131B00F1D0882E8618FB2DFF773F2E36FE0DC0B0
S1131B10232D2E7FA22E891458F434FE0BC032FCE0
S1131B2009C0832D8E7EA82E05C0B82CA32C03C01B
S1131B30B82C01C0B92CA4FE0FC0FE01E80DF11DA4
S1131B408081803321F49A2D997EA92E09C0A2FEAA
S1131B5006C0B394B39404C08A2D867809F0B39474
S1131B60A3FC10C0A0FE06C0B21480F4280C922C72
S1131B709B180DC0B21458F4B60180E290E076D000
S1131B80B394F8CFB21418F42B1802C0982C212C5B
S1131B90A4FE0FC0B60180E390E068D0A2FE16C098
S1131BA0A1FC03C088E790E002C088E590E0B6019C
S1131BB00CC08A2D867851F0A1FE02C08BE201C0D0
S1131BC080E2A7FC8DE2B60190E050D0891430F495
S1131BD0B60180E390E04AD09A94F8CF8A94F30156
S1131BE0E80DF11D8081B60190E040D08110F6CF60
S1131BF0222009F44ECEB60180E290E037D02A9438
S1131C00F7CFF6018681978102C08FEF9FEF2B9665
S1131C100FB6F894DEBF0FBECDBFDF91CF911F91F9
S1131C200F91FF90EF90DF90CF90BF90AF909F9077
S1131C308F907F906F905F904F903F902F9008957A
S1131C40FC010590615070400110D8F78095909583
S1131C508E0F9F1F0895FC01615070400190011088
S1131C60D8F7809590958E0F9F1F08950F931F931B
S1131C70CF93DF93FB01238121FD03C08FEF9FEFFF
S1131C802CC022FF16C0468157812481358142171A
S1131C90530744F4A081B1819D012F5F3F4F3183ED
S1131CA020838C93268137812F5F3F4F3783268390
S1131CB014C08B01EC01FB010084F185E02D199522
S1131CC0892BE1F6D80116968D919C911797019670
S1131CD017969C938E931697CE01DF91CF911F9107
S1131CE00F910895FA01AA27283051F1203181F18A
S1131CF0E8946F936E7F6E5F7F4F8F4F9F4FAF4F10
S1131D00B1E03ED0B4E03CD0670F781F891F9A1F22
S1131D10A11D680F791F8A1F911DA11D6A0F711DD6
S1131D20811D911DA11D20D009F468943F912AE0E2
S1131D30269F11243019305D3193DEF6CF010895CA
S1131D40462F4770405D4193B3E00FD0C9F7F6CFFB
S1131D50462F4F70405D4A3318F0495D31FD4052C3
S1131D60419302D0A9F7EACFB4E0A6959795879559
S1131D7077956795BA95C9F7009761057105089538
S1131D809B01AC010A2E06945795479537952795E4
S1131D90BA95C9F7620F731F841F951FA01D08957C
S1131DA00FD0A59F900DB49F900DA49F800D911D01
S1131DB011240895B7FFF4CFF3DF821B930B08952A
S1131DC0A29FB001B39FC001A39F700D811D112478
S1131DD0911DB29F700D811D1124911D0895F894D9
S1051DE0FFCF2F
S1131DE2010000000102040810204080202020206D
S1131DF2534E414B4520200053544152540020205D
S1131E0220202020200053636F72653A2025347508
S1131E12002D2D2D2D2D2D2D2D2D2D2D2D2D2D2D19
S1131E222D2D2D2D2D0020202020202075432D42E4
S1131E326F6172642020202020200041546D656768
S1131E426132353630206174203136204D487A00B3
S1131E52507265737320616E79206B657920746F9B
S1131E622072756E00202072656C65617365206155
S10F1E726C6C206B6579732020003A0032
S9030000FC
