S01800007543426F617264426569737069656C652E73726563DA
S113000071C000008FC000008DC000008BC00000D4
S113001089C0000087C0000085C0000083C00000C4
S113002081C000007FC000007DC000007BC00000D4
S113003079C0000077C0000075C0000073C00000E4
S113004071C000006FC000006DC000006BC00000F4
S113005069C0000067C0000065C000000EC7000052
S113006061C000005FC000005DC000005BC0000014
S113007059C0000057C0000055C0000053C0000024
S113008051C000004FC000004DC000004BC0000034
S113009049C0000047C0000045C0000043C0000044
S11300A041C000003FC000003DC000003BC0000054
S11300B039C0000037C0000035C0000033C0000064
S11300C031C000002FC000002DC000002BC0000074
S11300D029C0000027C0000025C0000023C0000084
S11300E021C0000011241FBECFEFD1E2DEBFCDBF7F
S11300F000E00CBF13E0A0E0B2E0E8E2F6E100E0CB
S11301000BBF02C007900D92A237B107D9F724E0C4
S1130110A2E7B3E001C01D92AA33B207E1F703D00E
S11301200C94120B6DCFCF93DF9300D000D0CDB7DA
S1130130DEB781E0F1D382E0A8D38AE092E09F9316
S11301408F93F5D40F900F90612C712C0F2EFAED34
S11301502F2EF2E03F2EF02D0F2EF0E14F2EF2E085
S11301605F2EF02D0F2EF2E2CF2EF2E0DF2EF02DD7
S113017080E068D19C01A8E8B3E1EDD62FEF33E02D
S113018040E050E0C6D629833A834B835C8389815F
S11301909A819E838D8381E055D19C01A8E8B3E1C7
S11301A0DAD62FEF33E040E050E0B3D649015A01EC
S11301B089018D819E818217930728F0E980FA8056
S11301C0E21AF30A02C0E62CF72C8D819E81813A53
S11301D09F4008F4ECC05F924F921F9281E08F938E
S11301E020D20F900F900F900F90C401885998401F
S11301F0853F9140E0F4462D572D6FEF73E0862D37
S1130200972D55D19F928F92DF92CF921F9283E0C8
S11302108F9307D284E392E09F938F931F9282E09F
S11302208F93FFD10FB6F894DEBF0FBECDBFC401CC
S1130230845A964081399140E0F4462D572D662D1D
S1130240772D8FEF93E033D19F928F92DF92CF92ED
S11302501F9283E08F93E5D18AE492E09F938F937A
S11302601F9282E08F93DDD10FB6F894DEBF0FBEEC
S1130270CDBFC4018C589A4081399140E0F4462D99
S1130280572D662D772D8FEF93E011D19F928F928A
S1130290DF92CF921F9283E08F93C3D18FE592E0D8
S11302A09F938F931F9282E08F93BBD10FB6F894E4
S11302B0DEBF0FBECDBFC4018C519C408D32914036
S11302C0E0F4462D572D662D772D8FEF93E0EFD078
S11302D09F928F92DF92CF921F9283E08F93A1D14E
S11302E084E792E09F938F931F9282E08F9399D13A
S11302F00FB6F894DEBF0FBECDBFC401845F91403A
S1130300893C9105E0F4462D572D662D772D8FEF0E
S113031093E0CDD09F928F92DF92CF921F9283E091
S11303208F937FD189E892E09F938F931F9282E00D
S11303308F9377D10FB6F894DEBF0FBECDBF0436CE
S11303401105F0F44FEF53E0662D772D8FEF93E016
S1130350AED08EE992E09F938F931F9281E08F93AA
S113036060D1FF92EF9283EB92E09F938F931F9261
S113037082E08F9356D10FB6F894DEBF0FBECDBF87
S11303800532134128F14FEF53E0662D772D862D6A
S1130390972D8DD085EC92E09F938F931F9281E0EF
S11303A08F933FD10F900F900F900F9011C0462D57
S11303B0572D6FEF73E08FEF93E079D03F922F9238
S11303C01F9281E08F932DD10F900F900F900F907B
S11303D080EF92E09F938F931F921F9222D10F90F0
S11303E00F900F900F90C4CE82B995B9089583E011
S11303F084BD8BE085BD81E080936E0089EF87BD6D
S1130400089511BA10BA109208011092070180E4FD
S113041080937C008FE080937E008FEF80937D003B
S1130420EAE7F0E087EA808310927B0080818064B1
S11304308083808184FFFDCFEAE7F0E080818F7EB6
S11304408083089590E490937C00883060F0ECE71A
S1130450F0E090818850892B8083EBE7F0E0808185
S1130460886180830AC0ECE7F0E09081892B808367
S1130470EBE7F0E08081877E8083EAE7F0E080812B
S113048080648083808184FFFDCF8FEA94E00197AC
S1130490F1F700C000008091780020917900EAE72C
S11304A0F0E090819F7E908390E0922B08952FEF4F
S11304B033E0F901E81BF90BC901861B970B241BD8
S11304C0350BF093A900E093A8009093AB008093C0
S11304D0AA003093AD002093AC0008958EEF809372
S11304E0A0008BE18093A10083E08093A7008FEFAD
S11304F08093A60040E050E060E070E080E090E08F
S1130500D6CF0895882311F0A09A0895A09808954D
S1130510882311F0A19A0895A1980895811104C027
S113052084B58F7D84BD089594B5906294BD88BDD3
S11305300895EF92FF920F931F93CF93DF937C0163
S1130540EB0181E0DFDF05E010E080E0E1DF81E046
S1130550DFDF01501109C9F780E0D4DF80E0D8DF84
S113056081E0D6DF83E4E816F10419F480E0CADF01
S113057002C081E0C7DF80E0CBDF81E0C9DF80E03B
S1130580C1DF80E0C5DF81E0C3DF04E010E080E08C
S1130590BFDFC0FF03C081E0B5DF02C080E0B2DF8F
S11305A0D695C79580E0B4DF81E0B2DF0150110930
S11305B071F780E0A7DF04E010E080E0A9DF81E0CC
S11305C0A7DF01501109C9F704E010E080E0A0DFC3
S11305D0C0FF03C081E096DF02C080E093DFD695C0
S11305E0C79580E095DF81E093DF0150110971F731
S11305F080E088DFC4E0D0E080E08ADF81E088DF4B
S11306002197D1F781E07EDF87EC90E00197F1F745
S113061000C00000DF91CF911F910F91FF90EF90E8
S113062008951F93CF93DF93CDB7DEB765970FB6C9
S1130630F894DEBF0FBECDBF9E01205E3F4F4E8DAE
S11306405F8D65E170E0CE01019607D56D8D8C8DCF
S113065090E2899F600D1124606870E083E490E06B
S113066068DF6981662379F010E01F5F70E084E43D
S113067090E05FDFE1E0F0E0EC0FFD1FE10FF11D22
S113068060816111F2CF65960FB6F894DEBF0FBE9C
S1130690CDBFDF91CF911F9108952F923F924F923A
S11306A05F926F927F928F929F92AF92BF92CF92FE
S11306B0DF92EF92FF920F931F93CF93DF93CDB707
S11306C0DEB7E3970FB6F894DEBF0FBECDBF8AAB9B
S11306D06BABEDA6FEA6702E612E522E432ECFA636
S11306E0A8AA8C2D8A0D89AB853170F087E093E040
S11306F09F938F939BA99F93EAA9EF9392DF0F9007
S11307000F900F900F90A8C04E01F5E18F0E911C31
S1130710CE0101969CA78BA7242E352E0F2EFAE02E
S1130720AF2EF02DB12CC12CD12CE12CF12C00E0FA
S113073010E02DA53EA5472D562D652D742D822D37
S1130740932D18D4205DF40122934F012DA53EA5CD
S1130750472D562D652D742D822D932D0DD42DA747
S11307603EA7742E652E562E472E282E392E8BA585
S11307709CA58815990591F684E199A9891BEFA593
S1130780EE2389F0FE0175962FA5280FA1E0B0E0B5
S1130790AC0FBD1FA80FB11D9C9191938F5F821365
S11307A0F5CF3FA502C0282F3FA5F8A9FF23F1F0FC
S11307B0FE01E30FF11D8EE2858B91E0930F38A9C2
S11307C0390F892F291BE5E1F0E0EC0FFD1FE80F3D
S11307D0F11D922F980FA1E0B0E0AC0FBD1FA90F3F
S11307E0B11D9C9190838F5F3813EDCFFE01E30F11
S11307F0F11D158A8D89803311F58FA5482F50E09E
S11308004150510914161506D4F480E090E020E01C
S113081060E22F5FE5E1F0E0EC0FFD1FE80FF91F48
S11308206083822F90E0E5E1F0E0EC0FFD1FE80F1C
S1130830F91F3081303319F48417950754F3CE012E
S113084045969F938F939BA99F93EAA9EF93E9DE23
S11308500F900F900F900F90E3960FB6F894DEBFB1
S11308600FBECDBFDF91CF911F910F91FF90EF90FD
S1130870DF90CF90BF90AF909F908F907F906F90BC
S11308805F904F903F902F9008959DEC899F912DFC
S1130890112496959695292F220F220F920F891BCA
S11308A011F080930102089561E070E083E490E028
S11308B040DE8FE39FE10197F1F700C0000083EC75
S11308C092E09F938F931F921F92ABDE0F900F9035
S11308D00F900F90089581E01BDE80E013DE64E347
S11308E070E083E490E025DE69E070E083E490E06A
S11308F020DE60E370E083E490E01BDE6CE070E0F7
S113090083E490E016DED0DF67E070E083E490E0FB
S113091010DE80E003CE08954F925F926F927F9233
S11309208F929F92AF92BF92CF92DF92EF92FF92FB
S11309300F931F93CF93DF93C82F85B785BF12B84A
S11309408FEF81B915B884B988B917B88BB91AB8BB
S11309508EB91DB8729811BA10BA94E094BB93B3CF
S1130960936093BB9D9A97EC9093020198E39093C4
S11309700101109205018093040110920801109264
S113098007018CE380930B0110920A0178942FDD08
S1130990A2DF37DDA3DDCC2309F4B8C08FEFBEDDC1
S11309A040E050E06FEF73E080E090E080DD8CE1A8
S11309B093E09F938F931F921F9233DE81E393E022
S11309C09F938F931F9281E08F932BDE87E093E0B8
S11309D09F938F931F9282E08F9323DE86E493E0AC
S11309E09F938F931F9283E08F931BDE8DB79EB7E7
S11309F040960FB6F8949EBF0FBE8DBF8824839493
S1130A00C0E0712C99249394D0E0CC24C394D12CCD
S1130A10E12C6894FF24F7F866246394512C09E0D0
S1130A2011E00F2EFBE5AF2EF3E0BF2EF02D0F2EBD
S1130A30F3E04F2EF02D992049F0C7010D2E02C08E
S1130A40969587950A94E2F7CFDC08C0C6010D2E6F
S1130A5002C0880F991F0A94E2F7C6DCDF5FD13128
S1130A6028F0862D9110852D982ED0E0882011F045
S1130A70CE5F01C0C2508C2F51DDCE3F21F0C8376C
S1130A8019F4862C01C0852C71103BC0F8018081BB
S1130A90837C91F040E050E066E272E08FEF93E0F7
S1130AA006DDBF92AF921F924F92BBDD0F900F9065
S1130AB00F900F90762C25C08FEF9CE70197F1F7EC
S1130AC000C00000B8CFF0DE80E028DD80E090E0D8
S1130AD08BDC40E050E060E070E080E090E0E7DC38
S1130AE01092C1031092C2031092C3031092C40364
S1130AF01092C5031092C6031092C7031092C80344
S1130B0005C0F8018081837CB9F6DDCFDF91CF91F8
S1130B101F910F91FF90EF90DF90CF90BF90AF9017
S1130B209F908F907F906F905F904F9008956F92F9
S1130B307F928F929F92AF92BF92CF92DF92EF9269
S1130B40FF920F931F93CF93DF93CDB7DEB76097D8
S1130B500FB6F894DEBF0FBECDBF8091000288238C
S1130B60B1F1A2DE109200021092BF031092BE03F4
S1130B700F2EF6EB8F2EF3E09F2EF02D06E713E0F9
S1130B80A0E0B0E040E2BD01F401119211924F01E6
S1130B90F801419381E090E013C062957295707FF3
S1130BA07627607F76276A587C4FFB01E20FF31F9C
S1130BB010821196005F1F4FA430B10521F707C0C2
S1130BC09C014193019680319105D1F7E6CF809144
S1130BD0BE039091BF0301969093BF038093BE031D
S1130BE09E012C5D3F4F4AA15BA160E170E0CE0104
S1130BF0019633D28E010F5F1F4F4E01F1E18F0E2C
S1130C00911CF80190E030E221E0DF01808188232B
S1130C1019F0992319F001C0922F3C933196E815ED
S1130C20F90599F7188A66E773E0CE0101960CD2AC
S1130C30882309F47EC00F2EFCEB6F2EF3E07F2E89
S1130C40F02D66EA73E046E753E0F3019291829156
S1130C503F0193838283DB0150979B01205F3F4FC9
S1130C60FB018D918193E217F307D9F76051710964
S1130C706417750751F7F80181918F01FA01819387
S1130C80AF0108151905B9F78091BE039091BF0310
S1130C909093B7038093B6038091010294E0D92E18
S1130CA0D81AF3E0FD1508F45BC083E0B82EBD1834
S1130CB00F2EF5E06F2EF02D0F2EF0E78F2EF3E0C0
S1130CC09F2EF02D6894772472F80B2D10E0C80144
S1130CD082959295907F9827807F98278A589C4F79
S1130CE09F938F936F92DF929CDC9F928F927F925F
S1130CF0DF9297DC000F111FF801EA54FC4F0081CA
S1130D001181A12CC72CE02EF12E00E010E020E090
S1130D1030E040E050E060E08D2DBFDCD394BA9425
S1130D200FB6F894DEBF0FBECDBF94E0D912CDCF7D
S1130D3017C00091BE031091BF031093B703009333
S1130D40B603A12C6894CC24C2F8E02EF12E00E066
S1130D5010E020E030E040E050E060E083E09DDC23
S1130D6060960FB6F894DEBF0FBECDBFDF91CF9172
S1130D701F910F91FF90EF90DF90CF90BF90AF90B5
S1130D809F908F907F906F900895CF93DF93CDB70E
S1130D90DEB728970FB6F894DEBF0FBECDBF88E04C
S1130DA0E2E0F2E0DE01119601900D928A95E1F7FE
S1130DB0E5E0F1E080818F7B8083E0917403F09122
S1130DC0750381E090E08C0F9D1FE80FF91F80816F
S1130DD090E09093730380937203AAE3B4E02AEC47
S1130DE033E0E5E0F1E05E914E91809172039091E1
S1130DF0730384239523892B21F08081806280836F
S1130E0003C080818F7D8083808180618083808125
S1130E108F7E8083A217B30731F7E5E0F1E080818C
S1130E20877F80838081887F808390818091740311
S1130E30892B808380818064808380818860808323
S1130E4080917403909175038730910530F4019675
S1130E50909375038093740307C0109275031092E6
S1130E60740381E08093C00328960FB6F894DEBF24
S1130E700FBECDBFDF91CF9108951F920F920FB691
S1130E800F9211240BB60F922F933F934F935F93BE
S1130E906F937F938F939F93AF93BF93EF93FF933E
S1130EA02091C1033091C2034091C3035091C40304
S1130EB06091C5037091C6038091C7039091C803E4
S1130EC0A1E0B6D02093C1033093C2034093C3037F
S1130ED05093C4036093C5037093C6038093C70300
S1130EE09093C8038091C90381114FDFFF91EF9163
S1130EF0BF91AF919F918F917F916F915F914F912E
S1130F003F912F910F900BBE0F900FBE0F901F902B
S1130F101895A1E21A2EAA1BBB1BFD010DC0AA1F26
S1130F20BB1FEE1FFF1FA217B307E407F50720F04E
S1130F30A21BB30BE40BF50B661F771F881F991FC9
S1130F401A9469F760957095809590959B01AC0112
S1130F50BD01CF010895A29FB001B39FC001A39F1B
S1130F60700D811D1124911DB29F700D811D1124DE
S1130F70911D0895689401C0E8948F929F92CF9335
S1130F80DF9305D0DF91CF919F908F9008958824AF
S1130F909924F401E401B0E49F93AA279A158B04E1
S1130FA09C04ED05FE05CF05D007A10798F4AD2FED
S1130FB0DC2FCF2FFE2FE92D982C892E982F872FE9
S1130FC0762F652F542F432F322F2227B85031F715
S1130FD0BF9127C01B2EBF91BB27220F331F441F75
S1130FE0551F661F771F881F991F881C991CEE1FA9
S1130FF0FF1FCC1FDD1FAA1FBB1F8A149B04EC0517
S1131000FD05CE05DF05A007B10748F08A189B0847
S1131010EC09FD09CE09DF09A00BB10B21601A947C
S1131020E1F62EF49401AF01BE01CD01000C089548
S11310300024A7FD00942A0F301D401D501D601D83
S1131040701D801D901D0895FB01DC018D910190A0
S113105080190110D9F3990B08950F931F93CF931F
S1131060DF93CDB7DEB72E970FB6F894DEBF0FBE71
S1131070CDBF8C01FA0186E08C831A83098377FF44
S113108002C060E070E8CB0101979E838D83A901C3
S1131090BF01CE01019619D04D815E8157FD0AC072
S11310A02F813885421753070CF49A01F801E20F97
S11310B0F31F10822E960FB6F894DEBF0FBECDBF7D
S11310C0DF91CF911F910F9108952F923F924F92EC
S11310D05F926F927F928F929F92AF92BF92CF92C4
S11310E0DF92EF92FF920F931F93CF93DF93CDB7CD
S11310F0DEB72B970FB6F894DEBF0FBECDBF6C01E1
S11311007B018A01FC0117821682838181FFBFC1A2
S1131110CE0101963C01F6019381F70193FD85917F
S113112093FF81917F01882309F4ADC1853239F49D
S113113093FD859193FF81917F01853221F4B6015E
S113114090E0D6D1E8CF912C212C312CFFE1F3157E
S1131150D8F08B3279F038F4803279F08332A1F40C
S1131160232D20611DC08D3261F0803369F4232D5D
S1131170216016C0832D8260382EE32DE4603E2E5C
S11311802AC0F32DF8601DC037FC2DC020ED280FB8
S11311902A3040F08E32B9F436FC75C1232D206418
S11311A0322E19C036FE06C08AE0989E200D112406
S11311B0922E11C0EAE02E9E200D1124222EF32D32
S11311C0F0623F2E08C08C3621F4832D8068382EBF
S11311D002C0883641F4F70193FD859193FF819114
S11311E07F018111B3CF982F9F7D9554933028F4BC
S11311F00C5F1F4F9FE399830DC0833631F0833713
S113120071F0833509F055C020C0F80180818983CD
S11312100E5F1F4F88248394912C530112C0280120
S1131220F2E04F0E511CF801A080B18036FE03C0DD
S1131230692D70E002C06FEF7FEFC5014ED14C0104
S11312408201F32DFF773F2E15C0280122E0420EC4
S1131250511CF801A080B18036FE03C0692D70E0F6
S113126002C06FEF7FEFC5012DD14C01F32DF06863
S11312703F2E820133FC19C0822D90E08816990616
S1131280A0F4B60180E290E033D12A94F5CFF501C1
S113129037FC859137FE81915F01B60190E028D13A
S11312A021102A9421E0821A91088114910479F77B
S11312B0E1C0843611F0893639F5F80137FE07C0EC
S11312C060817181828193810C5F1F4F08C06081AE
S11312D07181072E000C880B990B0E5F1F4FF32DA5
S11312E0FF763F2E97FF09C0909580957095619584
S11312F07F4F8F4F9F4FF0683F2E2AE030E0A301CD
S113130033D1882E861844C0853731F4232D2F7E9F
S1131310B22E2AE030E025C0932D997FB92E8F3666
S1131320C1F018F4883579F0AEC0803719F08837E9
S113133021F0A9C0E92FE061BE2EB4FE0DC0FB2D43
S1131340F460BF2E09C034FE0AC0292F2660B22ED5
S113135006C028E030E005C020E130E002C020E112
S113136032E0F801B7FE07C0608171818281938108
S11313700C5F1F4F06C06081718180E090E00E5FBA
S11313801F4FA301F1D0882E8618FB2DFF773F2E27
S113139036FE0DC0232D2E7FA22E891458F434FE60
S11313A00BC032FC09C0832D8E7EA82E05C0B82C3C
S11313B0A32C03C0B82C01C0B92CA4FE0FC0FE019D
S11313C0E80DF11D8081803321F49A2D997EA92E98
S11313D009C0A2FE06C0B394B39404C08A2D8678D3
S11313E009F0B394A3FC10C0A0FE06C0B21480F4AC
S11313F0280C922C9B180DC0B21458F4B60180E24C
S113140090E076D0B394F8CFB21418F42B1802C03D
S1131410982C212CA4FE0FC0B60180E390E068D084
S1131420A2FE16C0A1FC03C088E790E002C088E5D4
S113143090E0B6010CC08A2D867851F0A1FE02C05E
S11314408BE201C080E2A7FC8DE2B60190E050D0AF
S1131450891430F4B60180E390E04AD09A94F8CF2E
S11314608A94F301E80DF11D8081B60190E040D02B
S11314708110F6CF222009F44ECEB60180E290E02E
S113148037D02A94F7CFF6018681978102C08FEF77
S11314909FEF2B960FB6F894DEBF0FBECDBFDF9142
S11314A0CF911F910F91FF90EF90DF90CF90BF905D
S11314B0AF909F908F907F906F905F904F903F90F0
S11314C02F900895FC010590615070400110D8F7E9
S11314D0809590958E0F9F1F0895FC016150704078
S11314E001900110D8F7809590958E0F9F1F089555
S11314F00F931F93CF93DF93FB01238121FD03C03F
S11315008FEF9FEF2CC022FF16C0468157812481A4
S113151035814217530744F4A081B1819D012F5FA7
S11315203F4F318320838C93268137812F5F3F4F38
S11315303783268314C08B01EC01FB010084F18501
S1131540E02D1995892BE1F6D80116968D919C9181
S11315501797019617969C938E931697CE01DF9159
S1131560CF911F910F910895FA01AA27283051F1C4
S1131570203181F1E8946F936E7F6E5F7F4F8F4FC0
S11315809F4FAF4FB1E03ED0B4E03CD0670F781F1F
S1131590891F9A1FA11D680F791F8A1F911DA11D04
S11315A06A0F711D811D911DA11D20D009F468943D
S11315B03F912AE0269F11243019305D3193DEF6E5
S11315C0CF010895462F4770405D4193B3E00FD09B
S11315D0C9F7F6CF462F4F70405D4A3318F0495D86
S11315E031FD4052419302D0A9F7EACFB4E0A69569
S11315F09795879577956795BA95C9F7009761058B
S1131600710508959B01AC010A2E069457954795E0
S113161037952795BA95C9F7620F731F841F951FD5
S10B1620A01D0895F894FFCF0A
S1131628010401020408102040805374617274009C
S11316385370656973756E6720204F4B20202020F6
S11316482000562D44696F64656E3A20253575204F
S11316586D562000526573756C7461743A20477234
S1131668C3BC6E20202020202000526573756C7442
S113167861743A20526F74202020202020200052C8
S11316886573756C7461743A20426C61752020200E
S113169820202000526573756C7461743A20576574
S11316A8697373202020202000526573756C74615F
S11316B8743A2044696F6465202020202000537404
S11316C86174757320204B75727A7363686C7573D3
S11316D8732000563D20253575206D562020202086
S11316E820202020005374617475733A20556E7459
S11316F8657262727563682020005370656973753A
S11317086E67206E69636874204F4B202020200088
S11317184C45442D5465737465722056312E30201F
S1131728465220202020002D2D2D2D2D2D2D2D2D00
S11317382D2D2D2D2D2D2D2D2D2D2D00202020202E
S1131748202075432D426F617264202020202020C0
S11317580041546D6567613235363020617420313B
S113176836204D487A00507265737320616E792073
S11317786B657920746F2072756E00202072656C19
S11317886561736520616C6C206B6579732020003A
S10517983A0011
S9030000FC
